{
  "contractName": "Simplebank",
  "abi": [
    {
      "constant": false,
      "inputs": [],
      "name": "deposit",
      "outputs": [
        {
          "internalType": "uint256",
          "name": "",
          "type": "uint256"
        }
      ],
      "payable": true,
      "stateMutability": "payable",
      "type": "function"
    },
    {
      "constant": false,
      "inputs": [
        {
          "internalType": "uint256",
          "name": "amount",
          "type": "uint256"
        }
      ],
      "name": "withdraw",
      "outputs": [
        {
          "internalType": "uint256",
          "name": "remainingBalance",
          "type": "uint256"
        }
      ],
      "payable": false,
      "stateMutability": "nonpayable",
      "type": "function"
    },
    {
      "constant": true,
      "inputs": [],
      "name": "balance",
      "outputs": [
        {
          "internalType": "uint256",
          "name": "",
          "type": "uint256"
        }
      ],
      "payable": false,
      "stateMutability": "view",
      "type": "function"
    }
  ],
  "bytecode": "0x608060405234801561001057600080fd5b5061038f806100206000396000f3fe6080604052600436106100345760003560e01c80632e1a7d4d14610039578063b69ef8a814610088578063d0e30db0146100b3575b600080fd5b34801561004557600080fd5b506100726004803603602081101561005c57600080fd5b81019080803590602001909291905050506100d1565b6040518082815260200191505060405180910390f35b34801561009457600080fd5b5061009d6101f7565b6040518082815260200191505060405180910390f35b6100bb61023d565b6040518082815260200191505060405180910390f35b6000816000803373ffffffffffffffffffffffffffffffffffffffff1673ffffffffffffffffffffffffffffffffffffffff16815260200190815260200160002054101561011e57600080fd5b816000803373ffffffffffffffffffffffffffffffffffffffff1673ffffffffffffffffffffffffffffffffffffffff168152602001908152602001600020600082825403925050819055503373ffffffffffffffffffffffffffffffffffffffff166108fc839081150290604051600060405180830381858888f193505050501580156101b0573d6000803e3d6000fd5b506000803373ffffffffffffffffffffffffffffffffffffffff1673ffffffffffffffffffffffffffffffffffffffff168152602001908152602001600020549050919050565b60008060003373ffffffffffffffffffffffffffffffffffffffff1673ffffffffffffffffffffffffffffffffffffffff16815260200190815260200160002054905090565b60008060003373ffffffffffffffffffffffffffffffffffffffff1673ffffffffffffffffffffffffffffffffffffffff16815260200190815260200160002054346000803373ffffffffffffffffffffffffffffffffffffffff1673ffffffffffffffffffffffffffffffffffffffff168152602001908152602001600020540110156102ca57600080fd5b346000803373ffffffffffffffffffffffffffffffffffffffff1673ffffffffffffffffffffffffffffffffffffffff168152602001908152602001600020600082825401925050819055506000803373ffffffffffffffffffffffffffffffffffffffff1673ffffffffffffffffffffffffffffffffffffffff1681526020019081526020016000205490509056fea265627a7a72315820b1fcfba7d6cc7787819dddf766352dff70eb6015902dddf8d3153befce2f578f64736f6c63430005100032",
  "source": "pragma solidity ^0.5.10;\r\n\r\ncontract Simplebank {\r\n\r\n    mapping(address => uint) private balances;\r\n\r\n// 어떤 금액이든 상관없음 () 공백 가능\r\n//출금\r\n    function deposit() public payable returns(uint){\r\n        require(balances[msg.sender] + msg.value >= balances[msg.sender]);\r\n        balances[msg.sender] += msg.value;\r\n        return balances[msg.sender];\r\n    }\r\n\r\n//입금\r\n    function withdraw(uint amount) public returns(uint remainingBalance){\r\n        require(balances[msg.sender] >= amount);\r\n        balances[msg.sender] -= amount;\r\n        msg.sender.transfer(amount);\r\n        remainingBalance = balances[msg.sender];\r\n        // smae\r\n        //return balances[msg.sender];\r\n    }\r\n\r\n//금액 확인\r\n    function balance() view public returns(uint){\r\n        return balances[msg.sender];\r\n    }\r\n}",
  "sourcePath": "C:/Users/Jo/Desktop/del_test_1/contracts/SimpleBank.sol",
  "compiler": {
    "name": "solc",
    "version": "0.5.16+commit.9c3226ce.Emscripten.clang"
  },
  "schemaVersion": "3.3.2",
  "updatedAt": "2020-12-11T10:21:20.196Z",
  "networkType": "ethereum",
  "devdoc": {
    "methods": {}
  },
  "userdoc": {
    "methods": {}
  }
}