{
  "contractName": "UserAddress",
  "abi": [
    {
      "constant": true,
      "inputs": [],
      "name": "userAddress1",
      "outputs": [
        {
          "internalType": "string",
          "name": "",
          "type": "string"
        }
      ],
      "payable": false,
      "stateMutability": "view",
      "type": "function"
    },
    {
      "constant": true,
      "inputs": [],
      "name": "userAddress2",
      "outputs": [
        {
          "internalType": "string",
          "name": "",
          "type": "string"
        }
      ],
      "payable": false,
      "stateMutability": "view",
      "type": "function"
    },
    {
      "constant": true,
      "inputs": [],
      "name": "userAddress3",
      "outputs": [
        {
          "internalType": "string",
          "name": "",
          "type": "string"
        }
      ],
      "payable": false,
      "stateMutability": "view",
      "type": "function"
    },
    {
      "constant": true,
      "inputs": [],
      "name": "getDeliveryInfo",
      "outputs": [
        {
          "internalType": "string",
          "name": "",
          "type": "string"
        }
      ],
      "payable": false,
      "stateMutability": "view",
      "type": "function"
    },
    {
      "constant": false,
      "inputs": [
        {
          "internalType": "string",
          "name": "setAddress1",
          "type": "string"
        }
      ],
      "name": "setUserAddress",
      "outputs": [],
      "payable": false,
      "stateMutability": "nonpayable",
      "type": "function"
    },
    {
      "constant": true,
      "inputs": [],
      "name": "getUserAddress1",
      "outputs": [
        {
          "internalType": "string",
          "name": "",
          "type": "string"
        }
      ],
      "payable": false,
      "stateMutability": "view",
      "type": "function"
    },
    {
      "constant": true,
      "inputs": [],
      "name": "getUserAddress2",
      "outputs": [
        {
          "internalType": "string",
          "name": "",
          "type": "string"
        }
      ],
      "payable": false,
      "stateMutability": "view",
      "type": "function"
    },
    {
      "constant": true,
      "inputs": [],
      "name": "getUserAddress3",
      "outputs": [
        {
          "internalType": "string",
          "name": "",
          "type": "string"
        }
      ],
      "payable": false,
      "stateMutability": "view",
      "type": "function"
    }
  ],
  "bytecode": "0x60806040526040518060400160405280600d81526020017febb0b0ec86a120ecb69cebb09c000000000000000000000000000000000000008152506000908051906020019061004f9291906100fa565b506040518060400160405280600a81526020017febb0b0ec86a120eca491000000000000000000000000000000000000000000008152506001908051906020019061009b9291906100fa565b506040518060400160405280600d81526020017febb0b0ec86a120ec9984eba38c00000000000000000000000000000000000000815250600290805190602001906100e79291906100fa565b503480156100f457600080fd5b5061019f565b828054600181600116156101000203166002900490600052602060002090601f016020900481019282601f1061013b57805160ff1916838001178555610169565b82800160010185558215610169579182015b8281111561016857825182559160200191906001019061014d565b5b509050610176919061017a565b5090565b61019c91905b80821115610198576000816000905550600101610180565b5090565b90565b6109a0806101ae6000396000f3fe608060405234801561001057600080fd5b50600436106100885760003560e01c8063b0fea8dd1161005b578063b0fea8dd14610299578063b856c2b81461031c578063b8f5873a1461039f578063ffead38a1461045a57610088565b8063111c85211461008d5780631ad51ef4146101105780631da4d85f14610193578063910f441a14610216575b600080fd5b6100956104dd565b6040518080602001828103825283818151815260200191508051906020019080838360005b838110156100d55780820151818401526020810190506100ba565b50505050905090810190601f1680156101025780820380516001836020036101000a031916815260200191505b509250505060405180910390f35b61011861057b565b6040518080602001828103825283818151815260200191508051906020019080838360005b8381101561015857808201518184015260208101905061013d565b50505050905090810190601f1680156101855780820380516001836020036101000a031916815260200191505b509250505060405180910390f35b61019b61061d565b6040518080602001828103825283818151815260200191508051906020019080838360005b838110156101db5780820151818401526020810190506101c0565b50505050905090810190601f1680156102085780820380516001836020036101000a031916815260200191505b509250505060405180910390f35b61021e6106bf565b6040518080602001828103825283818151815260200191508051906020019080838360005b8381101561025e578082015181840152602081019050610243565b50505050905090810190601f16801561028b5780820380516001836020036101000a031916815260200191505b509250505060405180910390f35b6102a1610761565b6040518080602001828103825283818151815260200191508051906020019080838360005b838110156102e15780820151818401526020810190506102c6565b50505050905090810190601f16801561030e5780820380516001836020036101000a031916815260200191505b509250505060405180910390f35b610324610770565b6040518080602001828103825283818151815260200191508051906020019080838360005b83811015610364578082015181840152602081019050610349565b50505050905090810190601f1680156103915780820380516001836020036101000a031916815260200191505b509250505060405180910390f35b610458600480360360208110156103b557600080fd5b81019080803590602001906401000000008111156103d257600080fd5b8201836020820111156103e457600080fd5b8035906020019184600183028401116401000000008311171561040657600080fd5b91908080601f016020809104026020016040519081016040528093929190818152602001838380828437600081840152601f19601f82011690508083019250505050505050919291929050505061080e565b005b610462610828565b6040518080602001828103825283818151815260200191508051906020019080838360005b838110156104a2578082015181840152602081019050610487565b50505050905090810190601f1680156104cf5780820380516001836020036101000a031916815260200191505b509250505060405180910390f35b60018054600181600116156101000203166002900480601f0160208091040260200160405190810160405280929190818152602001828054600181600116156101000203166002900480156105735780601f1061054857610100808354040283529160200191610573565b820191906000526020600020905b81548152906001019060200180831161055657829003601f168201915b505050505081565b606060018054600181600116156101000203166002900480601f0160208091040260200160405190810160405280929190818152602001828054600181600116156101000203166002900480156106135780601f106105e857610100808354040283529160200191610613565b820191906000526020600020905b8154815290600101906020018083116105f657829003601f168201915b5050505050905090565b606060008054600181600116156101000203166002900480601f0160208091040260200160405190810160405280929190818152602001828054600181600116156101000203166002900480156106b55780601f1061068a576101008083540402835291602001916106b5565b820191906000526020600020905b81548152906001019060200180831161069857829003601f168201915b5050505050905090565b606060028054600181600116156101000203166002900480601f0160208091040260200160405190810160405280929190818152602001828054600181600116156101000203166002900480156107575780601f1061072c57610100808354040283529160200191610757565b820191906000526020600020905b81548152906001019060200180831161073a57829003601f168201915b5050505050905090565b606061076b61061d565b905090565b60028054600181600116156101000203166002900480601f0160208091040260200160405190810160405280929190818152602001828054600181600116156101000203166002900480156108065780601f106107db57610100808354040283529160200191610806565b820191906000526020600020905b8154815290600101906020018083116107e957829003601f168201915b505050505081565b80600090805190602001906108249291906108c6565b5050565b60008054600181600116156101000203166002900480601f0160208091040260200160405190810160405280929190818152602001828054600181600116156101000203166002900480156108be5780601f10610893576101008083540402835291602001916108be565b820191906000526020600020905b8154815290600101906020018083116108a157829003601f168201915b505050505081565b828054600181600116156101000203166002900490600052602060002090601f016020900481019282601f1061090757805160ff1916838001178555610935565b82800160010185558215610935579182015b82811115610934578251825591602001919060010190610919565b5b5090506109429190610946565b5090565b61096891905b8082111561096457600081600090555060010161094c565b5090565b9056fea265627a7a72315820413cfdb968024064f8c73a1a10c338d616f15844747099d1c6a04c8e9d0c138964736f6c63430005100032",
  "source": "pragma solidity >=0.4.22 < 0.8.0;\r\n\r\ncontract UserAddress {\r\n    string public userAddress1 = \"배송 출발\";\r\n    string public userAddress2 = \"배송 중\";\r\n    string public userAddress3 = \"배송 완료\";\r\n    //uint public cnt = 0;\r\n\r\n    function getDeliveryInfo() public view returns (string memory) {\r\n        // require(cnt == 0);\r\n        return getUserAddress1();\r\n        // require(cnt == 1);\r\n        // return getUserAddress2();\r\n        // require(cnt == 2);\r\n        // return getUserAddress3();\r\n\r\n    }\r\n\r\n    function setUserAddress (string memory setAddress1) public {\r\n        userAddress1 = setAddress1;\r\n    }\r\n\r\n    function getUserAddress1() public view returns (string memory) {\r\n        return userAddress1;\r\n    }\r\n\r\n    function getUserAddress2() public view returns (string memory) {        \r\n        return userAddress2;\r\n    }\r\n\r\n    function getUserAddress3() public view returns (string memory) {\r\n        return userAddress3;\r\n    }\r\n}",
  "sourcePath": "C:/Users/Jo/Desktop/del_test_1/contracts/UserAddress.sol",
  "compiler": {
    "name": "solc",
    "version": "0.5.16+commit.9c3226ce.Emscripten.clang"
  },
  "schemaVersion": "3.3.2",
  "updatedAt": "2020-12-11T10:21:21.087Z",
  "networkType": "ethereum",
  "devdoc": {
    "methods": {}
  },
  "userdoc": {
    "methods": {}
  }
}